:100000000C943A010C946B010C946B010C946B01F1
:100010000C946B010C946B010C946B010C946B01B0
:100020000C946B010C946B010C946B010C946B01A0
:100030000C946B010C946B010C946B010C946B0190
:100040000C946B010C946B010C946B010C946B0180
:100050000C946B010C946B010C946B010C94CA050D
:100060000C946B010C943E060C9414060C946B01DA
:100070000C946B010C946B010C946B010C946B0150
:100080000C946B010C946B010C946B010C946B0140
:100090000C946B010C946B010C946B010C946B0130
:1000A0000C946B010C946B010C946B010C946B0120
:1000B0000C946B010C946B010C946B010C946B0110
:1000C0000C946B010C946B010C946B010C946B0100
:1000D0000C946B010C946B010C946B010C946B01F0
:1000E0000C946B0198019B018A018E019201D2014F
:1000F0009F01A301A901AD01B101B701BB01BF017E
:10010000D201C501C901CD010C9451070C948D0297
:100110000C94BF010C9434030C94E7020C9450022D
:100120000C94CD010C949B010C94BB010C94920196
:100130000C94A3010C94C5010C94B7010C94980184
:100140000C949F010C948A010C94A9010C947E02DA
:100150000C94A1020C94D2010C94C9010C948E0150
:100160000C94AD010C94AF020C94B101000021007D
:10017000240027002A002D00300033000101000078
:10018000040107010A0100002200250028002B00BD
:100190002E003100340002010000050108010B01AE
:1001A00005050505070508080808020202020A0AF3
:1001B0000808040404040101010101010101030311
:1001C000030303030303040707070C0C0C0C0C0CBC
:1001D0000C0C0202020206060606060606060B0BB9
:1001E0000B0B0B0B0B0B01021020200808102040FA
:1001F00010204080020102010804020101020408EB
:100200001020408080402010080402018004020178
:1002100080402010080402010804020101020408C1
:1002200010204080010204081020408000000A0BCA
:1002300002090C0D0E080703040100000000000075
:1002400000000000000000000000000000000000AE
:10025000000000000000000012111000000000006B
:10026000000000000000000000000000000000008E
:100270000000510711241FBECFEFD1E2DEBFCDBF7A
:1002800000E00CBF12E0A0E0B2E0EAE1FFE000E035
:100290000BBF02C007900D92AC31B107D9F723E034
:1002A000ACE1B2E001C01D92A434B207E1F711E065
:1002B000CAE3D1E000E006C021970109802FFE01CA
:1002C0000E947E07C933D10780E00807A9F70E9482
:1002D00074060C948B070C940000382FE9E3F2E0CD
:1002E0004491E3EFF1E02491EDEAF1E09491992358
:1002F00009F46CC0442309F455C050E0FA01319769
:10030000E231F10508F04EC08827EE58FF4F8F4FBD
:100310000C947E07809180008F7707C080918000C9
:100320008F7D03C080918000877F809380003AC0DA
:1003300084B58F7702C084B58F7D84BD33C0809132
:10034000B0008F7703C08091B0008F7D8093B000A4
:1003500029C0809190008F7707C0809190008F7D99
:1003600003C080919000877F809390001BC0809194
:10037000A0008F7707C08091A0008F7D03C080917F
:10038000A000877F8093A0000DC0809120018F770F
:1003900007C0809120018F7D03C080912001877F5D
:1003A00080932001E92FF0E0EE0FFF1FEA57FE4F88
:1003B000A591B4919FB7F894311104C08C91209508
:1003C000282302C0EC912E2B2C939FBF08953FB79A
:1003D000F8948091400390914103A0914203B09121
:1003E000430326B5A89B05C02F3F19F00196A11D18
:1003F000B11D3FBFBA2FA92F982F8827820F911DBB
:10040000A11DB11DBC01CD0142E0660F771F881F01
:10041000991F4A95D1F708958F929F92AF92BF92FC
:10042000CF92DF92EF92FF920E94E7014B015C01B5
:1004300088EEC82E83E0D82EE12CF12C0E94E70133
:10044000DC01CB0188199909AA09BB09883E9340B0
:10045000A105B10598F321E0C21AD108E108F1081D
:1004600088EE880E83E0981EA11CB11CC114D10433
:10047000E104F10419F7FF90EF90DF90CF90BF9067
:10048000AF909F908F9008952FB7F89460913C03A0
:1004900070913D0380913E0390913F032FBF0895DB
:1004A000CF92DF92EF92FF920F931F93CF93DF9340
:1004B0006C017A018B01C0E0D0E0CE15DF0581F040
:1004C000D8016D918D01D601ED91FC910190F081E3
:1004D000E02DC6011995892B11F02196EECF7E01F2
:1004E000C701DF91CF911F910F91FF90EF90DF90A7
:1004F000CF900895089580E090E00895FC01538D19
:10050000448D252F30E0842F90E0821B930B5417ED
:1005100010F0CF96089501970895FC01918D828D7A
:10052000981761F0828DDF01A80FB11D5D968C9147
:10053000928D9F5F9F73928F90E008958FEF9FEF52
:100540000895FC01918D828D981731F0828DE80F0E
:10055000F11D858D90E008958FEF9FEF0895FC01C8
:10056000918D228D892F90E0805C9F4F821B910995
:100570008F73992708958EE992E00E94AF0221E0DF
:10058000892B09F420E0822F0895FC01848DDF017E
:10059000A80FB11DA35ABF4F2C91848D90E00196F6
:1005A0008F739927848FA689B7892C93A089B189E5
:1005B0008C91837080648C93938D848D981306C086
:1005C0000288F389E02D80818F7D80830895EF92EA
:1005D000FF920F931F93CF93DF93EC0181E0888FFD
:1005E0009B8D8C8D981305C0E889F989808185FDE4
:1005F00026C0F62E0B8D10E00F5F1F4F0F731127D3
:10060000E02E8C8DE8120CC00FB607FCFACFE889FB
:10061000F989808185FFF5CFCE010E94C502F1CF17
:100620008B8DFE01E80FF11DE35AFF4FF0829FB75B
:10063000F8940B8FEA89FB89808180620AC09FB79A
:10064000F894EE89FF896083E889F9898081837055
:10065000806480839FBF81E090E0DF91CF911F9104
:100660000F91FF90EF900895CF93DF93EC01888D69
:100670008823C9F0EA89FB89808185FD05C0A889A6
:10068000B9898C9186FD0FC00FB607FCF5CF80812C
:1006900085FFF2CFA889B9898C9185FFEDCFCE0176
:1006A0000E94C502E7CFDF91CF9108951F93CF93AA
:1006B000DF9300D0CDB7DEB7182F0E940C028EE971
:1006C00092E00E94AF02181619062CF48EE992E00F
:1006D0000E948D02F4CF8DE08A838AE08B83198398
:1006E00043E050E0BE016F5F7F4F8EE992E00E94D1
:1006F00050020F900F900F90DF91CF911F910895AE
:100700004F925F926F927F928F929F92AF92BF9221
:10071000CF92DF92EF92FF920F931F93CF93DF93CD
:1007200000D01F92CDB7DEB78EE992E00E94AF02F3
:10073000181619060CF0E2C18EE992E00E948D02B3
:10074000853F910509F095C00E9444024B015C0170
:10075000C12CD12C76018EE992E00E94AF021816CE
:10076000190654F088E8C81683E1D806E104F104BC
:1007700008F483C08FEF7EC0E8E8CE16E3E1DE0622
:10078000E104F104B8F78EE992E00E948D028F3AFD
:10079000910509F06EC00E9444024B015C01C12C1E
:1007A000D12C76018EE992E00E94AF0202970CF400
:1007B0006DC0F8E8CF16F3E1DF06E104F104D0F6EE
:1007C0008EE992E00E948D02F82E8EE992E00E945E
:1007D0008D021F2D00E0082B10939D0200939C02B8
:1007E0000115110509F0A5C00E9444024B015C01EE
:1007F000C12CD12C76018EE992E00E94AF020397C2
:100800000CF455C088E8C81683E1D806E104F10469
:1008100008F055C00CE112E08EE992E00E948D02D2
:10082000F80181938F01F2E00F311F07A9F70E94B1
:1008300044024B015C01C12CD12C76018EE992E07F
:100840000E94AF0202970CF498C098E8C91693E191
:10085000D906E104F10408F097C08EE992E00E9405
:100860008D02182F8EE992E00E948D021D3009F44E
:10087000A3C08DEF0E94560341C10E9444026B0148
:100880007C01C818D908EA08FB0865CF98E8C916A2
:1008900093E1D906E104F10408F06CCF0E94440210
:1008A0006B017C01C818D908EA08FB087BCFE8E88F
:1008B000CE16E3E1DE06E104F10408F474C00E9400
:1008C0000C028EE992E00E94AF02181619062CF471
:1008D0008EE992E00E948D02F4CF80910002909107
:1008E0000102A091020289839A83AB8343E050E026
:1008F00018C090EFC916D90691E0E906F10419F481
:1009000081E00E946D018091030290910402A09108
:100910000502B091060289839A83AB83BC8344E0CD
:1009200050E0BE016F5F7F4F8EE992E00E9450025F
:10093000E5C00E9444022B013C01C12CD12C760160
:100940005801E3E0AE0EB11C8EE992E00E94AF02C6
:100950008A159B050CF058C0F8E8CF16F3E1DF06C6
:10096000E104F10408F006CF0E9444026B017C010F
:10097000C418D508E608F708E7CF88E8C81683E169
:10098000D806E104F104B8F10E940C028EE992E06D
:100990000E94AF02181619060CF09FCF8EE992E064
:1009A0000E948D02F3CF0E9444026B017C01C818A3
:1009B000D908EA08FB081FCF8A3009F05ACF809186
:1009C0001C02C0901D02D12CE12CF12CFE2CED2C30
:1009D000DC2CCC24E82A80911E02C82A8EE992E001
:1009E0000E94AF02181619060CF083CF8EE992E030
:1009F0000E948D02F3CF0E9444026B017C01C81853
:100A0000D908EA08FB081ACFE8E8CE16E3E1DE06CB
:100A1000E104F10408F0AECE8CE1E82E82E0F82E7D
:100A2000C7018C5192408A159B0540F48EE992E0F3
:100A30000E948D02F70181937F01F2CF0E94440250
:100A40004B015C01C12CD12C76018EE992E00E9411
:100A5000AF0202978CF4F8E8CF16F3E1DF06E10469
:100A6000F10408F087CE0E9444026B017C01C81893
:100A7000D908EA08FB08E9CFF8E8CF16F3E1DF066A
:100A8000E104F10408F076CE8EE992E00E948D0236
:100A9000F82E8EE992E00E948D029DE0F912E9CED7
:100AA0008A3009F0E6CE8EE992E00E94AF02181675
:100AB00019062CF48EE992E00E948D02F4CFF80121
:100AC000E45EFD4F928180911F02890F9AEA99831B
:100AD0009DE09B839AE09C838A8344E050E0BE01C2
:100AE0006F5F7F4F8EE992E00E94500280911F025B
:100AF000813011F0811102C00E946D010F900F90A2
:100B00000F900F90DF91CF911F910F91FF90EF9079
:100B1000DF90CF90BF90AF909F908F907F906F901D
:100B20005F904F9008950E94BB02811125C080E024
:100B300090E0892B41F080E090E0892B21F00E9429
:100B4000000081111CC080E090E0892B41F080E022
:100B500090E0892B21F00E940000811113C080E0F9
:100B600090E0892BA1F080E090E0892B81F00E9439
:100B7000000081110AC008950E948003D8CF0E940E
:100B80000000E1CF0E940000EACF0C94000008951D
:100B90000E9486071F920F920FB60F9211242F9377
:100BA0003F938F939F93AF93BF9380913C0390911A
:100BB0003D03A0913E03B0913F0330913B0323E0FE
:100BC000230F2D3720F40196A11DB11D05C026E885
:100BD000230F0296A11DB11D20933B0380933C037C
:100BE00090933D03A0933E03B0933F038091400355
:100BF00090914103A0914203B09143030196A11D3E
:100C0000B11D8093400390934103A0934203B0939E
:100C10004303BF91AF919F918F913F912F910F907F
:100C20000FBE0F901F9018951F920F920FB60F9244
:100C300011240BB60F922F933F934F935F936F93B3
:100C40007F938F939F93AF93BF93EF93FF938EE91F
:100C500092E00E94C502FF91EF91BF91AF919F91E9
:100C60008F917F916F915F914F913F912F910F9055
:100C70000BBE0F900FBE0F901F9018951F920F92F2
:100C80000FB60F9211240BB60F922F938F939F9351
:100C9000EF93FF93E091AE02F091AF028081E0917B
:100CA000B402F091B50282FD12C090818091B7022A
:100CB0008F5F8F732091B802821751F0E091B702D5
:100CC000F0E0E256FD4F958F8093B70201C080811E
:100CD000FF91EF919F918F912F910F900BBE0F90ED
:100CE0000FBE0F901F901895CF93DF9300D0CDB714
:100CF000DEB7789484B5826084BD84B5816084BD9C
:100D000085B5826085BD85B5816085BD80916E00A9
:100D1000816080936E0010928100809181008260DA
:100D20008093810080918100816080938100809117
:100D300080008160809380008091B1008460809306
:100D4000B1008091B00081608093B00080919100EB
:100D500082608093910080919100816080939100E6
:100D6000809190008160809390008091A1008260CA
:100D70008093A1008091A10081608093A100809167
:100D8000A00081608093A000809121018260809307
:100D900021018091210181608093210180912001B6
:100DA00081608093200180917A00846080937A0032
:100DB00080917A00826080937A0080917A008160CD
:100DC00080937A0080917A00806880937A001092F4
:100DD000C100E3EFF1E02491EDEAF1E08491882392
:100DE00099F090E0880F991FFC01E459FE4FA591FE
:100DF000B491FC01EA57FE4F859194918FB7F89416
:100E0000EC91E22BEC938FBF80E00E946D01E091AA
:100E1000AE02F091AF0282E08083E091AA02F091ED
:100E2000AB021082E091AC02F091AD0280E18083D0
:100E30001092B602E091B202F091B30286E0808394
:100E4000E091B002F091B102808180618083E091F5
:100E5000B002F091B102808188608083E091B0029D
:100E6000F091B102808180688083E091B002F091BE
:100E7000B10280818F7D808380910702909108026A
:100E8000A091090289839A83AB8343E050E0BE01BD
:100E90006F5F7F4F8EE992E00E9450020E9493059F
:100EA000FDCFEEE9F2E01382128288EE93E0A0E03B
:100EB000B0E084839583A683B7838EE092E091832C
:100EC000808385EC90E09587848784EC90E0978719
:100ED000868780EC90E0918B808B81EC90E0938B07
:100EE000828B82EC90E0958B848B86EC90E0978BE4
:100EF000868B118E128E138E148E0895EE0FFF1FA7
:100F0000881F8BBF0790F691E02D199481E090E047
:0A0F1000F8940C948B07F894FFCFBF
:100F1A00FF0D0A00020D0AFA0D0A00000000E7029E
:0C0F2A0050027E023403AF028D02A102CF
:00000001FF
