:100000000C943A010C946B010C946B010C946B01F1
:100010000C946B010C946B010C946B010C946B01B0
:100020000C946B010C946B010C946B010C946B01A0
:100030000C946B010C946B010C946B010C946B0190
:100040000C946B010C946B010C946B010C946B0180
:100050000C946B010C946B010C946B010C94850354
:100060000C946B010C94F9030C94CF030C946B016A
:100070000C946B010C946B010C946B010C946B0150
:100080000C946B010C946B010C946B010C946B0140
:100090000C946B010C946B010C946B010C946B0130
:1000A0000C946B010C946B010C946B010C946B0120
:1000B0000C946B010C946B010C946B010C946B0110
:1000C0000C946B010C946B010C946B010C946B0100
:1000D0000C946B010C946B010C946B010C946B01F0
:1000E0000C946B0198019B018A018E019201D2014F
:1000F0009F01A301A901AD01B101B701BB01BF017E
:10010000D201C501C901CD010C94C5010C94C901EE
:100110000C948A010C94D2010C94A9010C949201C4
:100120000C94B1010C94AD010C94BF010C94950298
:100130000C94DB020C94BB010C940C050C948E0106
:100140000C9428030C9444020C94A3010C949F017A
:100150000C9472020C9481020C94CD010C949B01BE
:100160000C94A3020C94B7010C9498010000210098
:10017000240027002A002D00300033000101000078
:10018000040107010A0100002200250028002B00BD
:100190002E003100340002010000050108010B01AE
:1001A00005050505070508080808020202020A0AF3
:1001B0000808040404040101010101010101030311
:1001C000030303030303040707070C0C0C0C0C0CBC
:1001D0000C0C0202020206060606060606060B0BB9
:1001E0000B0B0B0B0B0B01021020200808102040FA
:1001F00010204080020102010804020101020408EB
:100200001020408080402010080402018004020178
:1002100080402010080402010804020101020408C1
:1002200010204080010204081020408000000A0BCA
:1002300002090C0D0E080703040100000000000075
:1002400000000000000000000000000000000000AE
:10025000000000000000000012111000000000006B
:10026000000000000000000000000000000000008E
:1002700000000C0511241FBECFEFD1E2DEBFCDBFC1
:1002800000E00CBF12E0A0E0B2E0E0E9FAE000E03C
:100290000BBF02C007900D92AC31B107D9F722E035
:1002A000ACE1B2E001C01D92A23CB207E1F711E05F
:1002B000CAE3D1E000E006C021970109802FFE01CA
:1002C0000E943905C933D10780E00807A9F70E94C9
:1002D0002F040C9446050C940000382FE9E3F2E05B
:1002E0004491E3EFF1E02491EDEAF1E09491992358
:1002F00009F46CC0442309F455C050E0FA01319769
:10030000E231F10508F04EC08827EE58FF4F8F4FBD
:100310000C943905809180008F7707C08091800010
:100320008F7D03C080918000877F809380003AC0DA
:1003300084B58F7702C084B58F7D84BD33C0809132
:10034000B0008F7703C08091B0008F7D8093B000A4
:1003500029C0809190008F7707C0809190008F7D99
:1003600003C080919000877F809390001BC0809194
:10037000A0008F7707C08091A0008F7D03C080917F
:10038000A000877F8093A0000DC0809120018F770F
:1003900007C0809120018F7D03C080912001877F5D
:1003A00080932001E92FF0E0EE0FFF1FEA57FE4F88
:1003B000A591B4919FB7F894311104C08C91209508
:1003C000282302C0EC912E2B2C939FBF08953FB79A
:1003D000F8948091BE029091BF02A091C002B091AA
:1003E000C10226B5A89B05C02F3F19F00196A11D9B
:1003F000B11D3FBFBA2FA92F982F8827820F911DBB
:10040000A11DB11DBC01CD0142E0660F771F881F01
:10041000991F4A95D1F708958F929F92AF92BF92FC
:10042000CF92DF92EF92FF920E94E7014B015C01B5
:1004300084EFC82EDD24D394E12CF12C0E94E70137
:10044000DC01CB0188199909AA09BB09883E9340B0
:10045000A105B10598F321E0C21AD108E108F1081D
:1004600088EE880E83E0981EA11CB11CC114D10433
:10047000E104F10419F7FF90EF90DF90CF90BF9067
:10048000AF909F908F900895CF92DF92EF92FF925E
:100490000F931F93CF93DF936C017A018B01C0E020
:1004A000D0E0CE15DF0581F0D8016D918D01D60128
:1004B000ED91FC910190F081E02DC6011995892BF9
:1004C00011F02196EECF7E01C701DF91CF911F91F0
:1004D0000F91FF90EF90DF90CF900895089580E006
:1004E00090E00895FC01538D448D252F30E0842F3A
:1004F00090E0821B930B541710F0CF96089501974C
:100500000895FC01918D828D981761F0828DDF0135
:10051000A80FB11D5D968C91928D9F5F9F73928FF6
:1005200090E008958FEF9FEF0895FC01918D828DEB
:10053000981731F0828DE80FF11D858D90E00895B8
:100540008FEF9FEF0895FC01918D228D892F90E010
:10055000805C9F4F821B91098F73992708958CE1CE
:1005600092E00E94A30221E0892B09F420E0822F6F
:100570000895FC01848DDF01A80FB11DA35ABF4F60
:100580002C91848D90E001968F739927848FA68992
:10059000B7892C93A089B1898C91837080648C93E6
:1005A000938D848D981306C00288F389E02D808195
:1005B0008F7D80830895EF92FF920F931F93CF93C7
:1005C000DF93EC0181E0888F9B8D8C8D981305C0A3
:1005D000E889F989808185FD26C0F62E0B8D10E013
:1005E0000F5F1F4F0F731127E02E8C8DE8120CC088
:1005F0000FB607FCFACFE889F989808185FFF5CF2E
:10060000CE010E94B902F1CF8B8DFE01E80FF11DE2
:10061000E35AFF4FF0829FB7F8940B8FEA89FB896A
:10062000808180620AC09FB7F894EE89FF89608359
:10063000E889F98980818370806480839FBF81E02D
:1006400090E0DF91CF911F910F91FF90EF9008956F
:10065000CF93DF93EC01888D8823C9F0EA89FB8969
:10066000808185FD05C0A889B9898C9186FD0FC060
:100670000FB607FCF5CF808185FFF2CFA889B98935
:100680008C9185FFEDCFCE010E94B902E7CFDF91BB
:10069000CF91089580E090E0892B21F00E94AF0275
:1006A000811125C080E090E0892B41F080E090E04E
:1006B000892B21F00E94000081111CC080E090E095
:1006C000892B41F080E090E0892B21F00E9400000E
:1006D000811113C080E090E0892BA1F080E090E0D0
:1006E000892B81F00E94000081110AC008950E94A8
:1006F0000000D8CF0E940000E1CF0E940000EACFA6
:100700000C94000008950E9441051F920F920FB6AD
:100710000F9211242F933F938F939F93AF93BF9387
:100720008091BA029091BB02A091BC02B091BD022F
:100730003091B90223E0230F2D3720F40196A11D3B
:10074000B11D05C026E8230F0296A11DB11D2093FF
:10075000B9028093BA029093BB02A093BC02B093FB
:10076000BD028091BE029091BF02A091C002B091E3
:10077000C1020196A11DB11D8093BE029093BF02DC
:10078000A093C002B093C102BF91AF919F918F918E
:100790003F912F910F900FBE0F901F9018951F92B1
:1007A0000F920FB60F9211240BB60F922F933F9317
:1007B0004F935F936F937F938F939F93AF93BF9369
:1007C000EF93FF938CE192E00E94B902FF91EF91C9
:1007D000BF91AF919F918F917F916F915F914F9159
:1007E0003F912F910F900BBE0F900FBE0F901F9057
:1007F00018951F920F920FB60F9211240BB60F92FD
:100800002F938F939F93EF93FF93E0912C02F0919E
:100810002D028081E0913202F091330282FD12C0FC
:100820009081809135028F5F8F73209136028217FD
:1008300051F0E0913502F0E0E45EFD4F958F80933A
:10084000350201C08081FF91EF919F918F912F918F
:100850000F900BBE0F900FBE0F901F9018957894BD
:1008600084B5826084BD84B5816084BD85B58260B5
:1008700085BD85B5816085BD80916E008160809366
:100880006E001092810080918100826080938100CF
:1008900080918100816080938100809180008160DF
:1008A000809380008091B10084608093B10080913A
:1008B000B00081608093B00080919100826080934D
:1008C00091008091910081608093910080919000CF
:1008D0008160809390008091A10082608093A1004C
:1008E0008091A10081608093A1008091A00081602F
:1008F0008093A000809121018260809321018091EA
:100900002101816080932101809120018160809389
:10091000200180917A00846080937A0080917A002F
:10092000826080937A0080917A00816080937A005F
:1009300080917A00806880937A001092C100E3EF82
:10094000F1E02491EDEAF1E08491882399F090E0C0
:10095000880F991FFC01E459FE4FA591B491FC0149
:10096000EA57FE4F859194918FB7F894EC91E22B62
:10097000EC938FBFE0912C02F0912D0282E08083F6
:10098000E0912802F09129021082E0912A02F09170
:100990002B0280E1808310923402E0913002F091CA
:1009A000310286E08083E0912E02F0912F02808157
:1009B00080618083E0912E02F0912F028081886017
:1009C0008083E0912E02F0912F02808180688083E5
:1009D000E0912E02F0912F0280818F7D808381E053
:1009E0000E946D010E940C0280E00E946D010E9435
:1009F0000C0245E050E062E172E08CE192E00E947E
:100A0000440242E050E068E172E08CE192E00E9432
:100A100044020E944A03E3CFECE1F2E01382128227
:100A200088EE93E0A0E0B0E084839583A683B7834B
:100A300084E092E09183808385EC90E095878487C1
:100A400084EC90E09787868780EC90E0918B808B98
:100A500081EC90E0938B828B82EC90E0958B848B81
:100A600086EC90E0978B868B118E128E138E148EEF
:100A70000895EE0FFF1F881F8BBF0790F691E02DA2
:100A8000199481E090E0F8940C944605F894FFCF17
:100A900000000000DB02440272022803A30281026C
:0C0AA000950248656C6C6F000D0A0000A8
:00000001FF
